{
  "_format": "hh-sol-artifact-1",
  "contractName": "Heap",
  "sourceName": "contracts/Heap.sol",
  "abi": [
    {
      "inputs": [
        {
          "internalType": "uint256",
          "name": "",
          "type": "uint256"
        }
      ],
      "name": "_orderbook",
      "outputs": [
        {
          "internalType": "uint256",
          "name": "",
          "type": "uint256"
        }
      ],
      "stateMutability": "view",
      "type": "function"
    },
    {
      "inputs": [
        {
          "internalType": "uint256",
          "name": "_index",
          "type": "uint256"
        }
      ],
      "name": "deleteOrder",
      "outputs": [],
      "stateMutability": "nonpayable",
      "type": "function"
    },
    {
      "inputs": [],
      "name": "getMax",
      "outputs": [
        {
          "internalType": "uint256",
          "name": "",
          "type": "uint256"
        }
      ],
      "stateMutability": "view",
      "type": "function"
    },
    {
      "inputs": [],
      "name": "getMin",
      "outputs": [
        {
          "internalType": "uint256",
          "name": "minElm",
          "type": "uint256"
        },
        {
          "internalType": "uint256",
          "name": "minIdx",
          "type": "uint256"
        }
      ],
      "stateMutability": "view",
      "type": "function"
    },
    {
      "inputs": [],
      "name": "getOrderbook",
      "outputs": [
        {
          "internalType": "uint256[]",
          "name": "",
          "type": "uint256[]"
        }
      ],
      "stateMutability": "view",
      "type": "function"
    },
    {
      "inputs": [
        {
          "internalType": "uint256",
          "name": "_value",
          "type": "uint256"
        }
      ],
      "name": "insert",
      "outputs": [],
      "stateMutability": "nonpayable",
      "type": "function"
    },
    {
      "inputs": [],
      "name": "removeMax",
      "outputs": [
        {
          "internalType": "uint256",
          "name": "",
          "type": "uint256"
        }
      ],
      "stateMutability": "nonpayable",
      "type": "function"
    },
    {
      "inputs": [],
      "name": "removeMin",
      "outputs": [
        {
          "internalType": "uint256",
          "name": "",
          "type": "uint256"
        }
      ],
      "stateMutability": "nonpayable",
      "type": "function"
    }
  ],
  "bytecode": "0x60806040526040518060e00160405280601e60ff168152602001601460ff168152602001600f60ff168152602001600860ff168152602001600a60ff168152602001600360ff168152602001600460ff168152506000906007610063929190610076565b5034801561007057600080fd5b506100e5565b8280548282559060005260206000209081019282156100b7579160200282015b828111156100b6578251829060ff16905591602001919060010190610096565b5b5090506100c491906100c8565b5090565b5b808211156100e15760008160009055506001016100c9565b5090565b610d3e806100f46000396000f3fe608060405234801561001057600080fd5b50600436106100885760003560e01c8063ab63c6071161005b578063ab63c60714610101578063b9bc8cad1461011f578063d6362e971461014f578063ff46bf301461016e57610088565b806311a003271461008d5780633075f552146100a957806390b5561d146100c75780639c7e399f146100e3575b600080fd5b6100a760048036038101906100a2919061094c565b61018c565b005b6100b1610260565b6040516100be9190610988565b60405180910390f35b6100e160048036038101906100dc919061094c565b610286565b005b6100eb6103fc565b6040516100f89190610988565b60405180910390f35b6101096104fc565b6040516101169190610a61565b60405180910390f35b6101396004803603810190610134919061094c565b610554565b6040516101469190610988565b60405180910390f35b610157610578565b604051610165929190610a83565b60405180910390f35b61017661067b565b6040516101839190610988565b60405180910390f35b60008080549050116101d3576040517f08c379a00000000000000000000000000000000000000000000000000000000081526004016101ca90610b09565b60405180910390fd5b60006101ee60016000805490506106ea90919063ffffffff16565b815481106101ff576101fe610b29565b5b90600052602060002001546000828154811061021e5761021d610b29565b5b9060005260206000200181905550600080548061023e5761023d610b58565b5b6001900381819060005260206000200160009055905561025d81610700565b50565b60008060008154811061027657610275610b29565b5b9060005260206000200154905090565b600081908060018154018082558091505060019003906000526020600020016000909190919091505560006102ca60016000805490506106ea90919063ffffffff16565b90505b60008111801561032b5750600081815481106102ec576102eb610b29565b5b9060005260206000200154600061030d6002846108b690919063ffffffff16565b8154811061031e5761031d610b29565b5b9060005260206000200154105b156103f8576000806103476002846108b690919063ffffffff16565b8154811061035857610357610b29565b5b906000526020600020015490506000828154811061037957610378610b29565b5b9060005260206000200154600061039a6002856108b690919063ffffffff16565b815481106103ab576103aa610b29565b5b906000526020600020018190555080600083815481106103ce576103cd610b29565b5b90600052602060002001819055506103f06002836108b690919063ffffffff16565b9150506102cd565b5050565b60008060008054905011610445576040517f08c379a000000000000000000000000000000000000000000000000000000000815260040161043c90610b09565b60405180910390fd5b60008060008154811061045b5761045a610b29565b5b90600052602060002001549050600061048360016000805490506106ea90919063ffffffff16565b8154811061049457610493610b29565b5b9060005260206000200154600080815481106104b3576104b2610b29565b5b906000526020600020018190555060008054806104d3576104d2610b58565b5b6001900381819060005260206000200160009055905560006104f481610700565b819250505090565b6060600080548060200260200160405190810160405280929190818152602001828054801561054a57602002820191906000526020600020905b815481526020019060010190808311610536575b5050505050905090565b6000818154811061056457600080fd5b906000526020600020016000915090505481565b600080600061059660016000805490506106ea90919063ffffffff16565b90506000806105af6002846108b690919063ffffffff16565b815481106105c0576105bf610b29565b5b9060005260206000200154905060006105e283846108b690919063ffffffff16565b905060006105f984856108b690919063ffffffff16565b90505b60008054905081101561066d57610631836000838154811061062157610620610b29565b5b90600052602060002001546108cc565b92506000818154811061064757610646610b29565b5b9060005260206000200154830361065c578091505b8061066690610bb6565b90506105fc565b508181945094505050509091565b600080600080549050116106c4576040517f08c379a00000000000000000000000000000000000000000000000000000000081526004016106bb90610b09565b60405180910390fd5b6000806106cf610578565b9150915060008290506106e18261018c565b80935050505090565b600081836106f89190610bfe565b905092915050565b5b61071a60016000805490506106ea90919063ffffffff16565b61072e6002836108e590919063ffffffff16565b10156108b357600061075d600161074f6002856108e590919063ffffffff16565b6108fb90919063ffffffff16565b9050600080828154811061077457610773610b29565b5b906000526020600020015490506000806107986001856108fb90919063ffffffff16565b815481106107a9576107a8610b29565b5b90600052602060002001549050808210156107d5576107d26001846108fb90919063ffffffff16565b92505b600083815481106107e9576107e8610b29565b5b90600052602060002001546000858154811061080857610807610b29565b5b90600052602060002001541115610821575050506108b3565b600080858154811061083657610835610b29565b5b906000526020600020015490506000848154811061085757610856610b29565b5b90600052602060002001546000868154811061087657610875610b29565b5b9060005260206000200181905550806000858154811061089957610898610b29565b5b906000526020600020018190555083945050505050610701565b50565b600081836108c49190610c61565b905092915050565b60008183106108db57816108dd565b825b905092915050565b600081836108f39190610c92565b905092915050565b600081836109099190610cd4565b905092915050565b600080fd5b6000819050919050565b61092981610916565b811461093457600080fd5b50565b60008135905061094681610920565b92915050565b60006020828403121561096257610961610911565b5b600061097084828501610937565b91505092915050565b61098281610916565b82525050565b600060208201905061099d6000830184610979565b92915050565b600081519050919050565b600082825260208201905092915050565b6000819050602082019050919050565b6109d881610916565b82525050565b60006109ea83836109cf565b60208301905092915050565b6000602082019050919050565b6000610a0e826109a3565b610a1881856109ae565b9350610a23836109bf565b8060005b83811015610a54578151610a3b88826109de565b9750610a46836109f6565b925050600181019050610a27565b5085935050505092915050565b60006020820190508181036000830152610a7b8184610a03565b905092915050565b6000604082019050610a986000830185610979565b610aa56020830184610979565b9392505050565b600082825260208201905092915050565b7f4f72646572626f6f6b206973206e6f7420696e697469616c697a656400000000600082015250565b6000610af3601c83610aac565b9150610afe82610abd565b602082019050919050565b60006020820190508181036000830152610b2281610ae6565b9050919050565b7f4e487b7100000000000000000000000000000000000000000000000000000000600052603260045260246000fd5b7f4e487b7100000000000000000000000000000000000000000000000000000000600052603160045260246000fd5b7f4e487b7100000000000000000000000000000000000000000000000000000000600052601160045260246000fd5b6000610bc182610916565b91507fffffffffffffffffffffffffffffffffffffffffffffffffffffffffffffffff8203610bf357610bf2610b87565b5b600182019050919050565b6000610c0982610916565b9150610c1483610916565b9250828203905081811115610c2c57610c2b610b87565b5b92915050565b7f4e487b7100000000000000000000000000000000000000000000000000000000600052601260045260246000fd5b6000610c6c82610916565b9150610c7783610916565b925082610c8757610c86610c32565b5b828204905092915050565b6000610c9d82610916565b9150610ca883610916565b9250828202610cb681610916565b91508282048414831517610ccd57610ccc610b87565b5b5092915050565b6000610cdf82610916565b9150610cea83610916565b9250828201905080821115610d0257610d01610b87565b5b9291505056fea2646970667358221220588b7a74bff5f588237f99e93f6c0342ffbe81604e8bf0308d04da12b8ae3bb764736f6c63430008120033",
  "linkReferences": {},
  "deployedLinkReferences": {}
}