{
  "_format": "hh-sol-artifact-1",
  "contractName": "Heap",
  "sourceName": "contracts/Heap.sol",
  "abi": [
    {
      "anonymous": false,
      "inputs": [
        {
          "indexed": false,
          "internalType": "uint256",
          "name": "",
          "type": "uint256"
        }
      ],
      "name": "getMinEvent",
      "type": "event"
    },
    {
      "anonymous": false,
      "inputs": [
        {
          "indexed": false,
          "internalType": "uint256",
          "name": "",
          "type": "uint256"
        }
      ],
      "name": "removeMaxEvent",
      "type": "event"
    },
    {
      "anonymous": false,
      "inputs": [
        {
          "indexed": false,
          "internalType": "uint256",
          "name": "",
          "type": "uint256"
        }
      ],
      "name": "removeMinEvent",
      "type": "event"
    },
    {
      "inputs": [
        {
          "internalType": "uint256",
          "name": "",
          "type": "uint256"
        }
      ],
      "name": "_orderbook",
      "outputs": [
        {
          "internalType": "uint256",
          "name": "",
          "type": "uint256"
        }
      ],
      "stateMutability": "view",
      "type": "function"
    },
    {
      "inputs": [
        {
          "internalType": "uint256",
          "name": "_index",
          "type": "uint256"
        }
      ],
      "name": "deleteOrder",
      "outputs": [],
      "stateMutability": "nonpayable",
      "type": "function"
    },
    {
      "inputs": [],
      "name": "getMax",
      "outputs": [
        {
          "internalType": "uint256",
          "name": "",
          "type": "uint256"
        }
      ],
      "stateMutability": "view",
      "type": "function"
    },
    {
      "inputs": [],
      "name": "getMin",
      "outputs": [
        {
          "internalType": "uint256",
          "name": "minElm",
          "type": "uint256"
        }
      ],
      "stateMutability": "view",
      "type": "function"
    },
    {
      "inputs": [],
      "name": "getOrderbook",
      "outputs": [
        {
          "internalType": "uint256[]",
          "name": "",
          "type": "uint256[]"
        }
      ],
      "stateMutability": "view",
      "type": "function"
    },
    {
      "inputs": [
        {
          "internalType": "uint256",
          "name": "_value",
          "type": "uint256"
        }
      ],
      "name": "insert",
      "outputs": [],
      "stateMutability": "nonpayable",
      "type": "function"
    },
    {
      "inputs": [],
      "name": "removeMax",
      "outputs": [
        {
          "internalType": "uint256",
          "name": "",
          "type": "uint256"
        }
      ],
      "stateMutability": "nonpayable",
      "type": "function"
    },
    {
      "inputs": [],
      "name": "removeMin",
      "outputs": [
        {
          "internalType": "uint256",
          "name": "",
          "type": "uint256"
        }
      ],
      "stateMutability": "nonpayable",
      "type": "function"
    }
  ],
  "bytecode": "0x608060405234801561001057600080fd5b50610e60806100206000396000f3fe608060405234801561001057600080fd5b50600436106100885760003560e01c8063ab63c6071161005b578063ab63c60714610101578063b9bc8cad1461011f578063d6362e971461014f578063ff46bf301461016d57610088565b806311a003271461008d5780633075f552146100a957806390b5561d146100c75780639c7e399f146100e3575b600080fd5b6100a760048036038101906100a29190610a97565b61018b565b005b6100b161025f565b6040516100be9190610ad3565b60405180910390f35b6100e160048036038101906100dc9190610a97565b610285565b005b6100eb6103fb565b6040516100f89190610ad3565b60405180910390f35b610109610532565b6040516101169190610bac565b60405180910390f35b61013960048036038101906101349190610a97565b61058a565b6040516101469190610ad3565b60405180910390f35b6101576105ae565b6040516101649190610ad3565b60405180910390f35b6101756106ab565b6040516101829190610ad3565b60405180910390f35b60008080549050116101d2576040517f08c379a00000000000000000000000000000000000000000000000000000000081526004016101c990610c2b565b60405180910390fd5b60006101ed600160008054905061083590919063ffffffff16565b815481106101fe576101fd610c4b565b5b90600052602060002001546000828154811061021d5761021c610c4b565b5b9060005260206000200181905550600080548061023d5761023c610c7a565b5b6001900381819060005260206000200160009055905561025c8161084b565b50565b60008060008154811061027557610274610c4b565b5b9060005260206000200154905090565b600081908060018154018082558091505060019003906000526020600020016000909190919091505560006102c9600160008054905061083590919063ffffffff16565b90505b60008111801561032a5750600081815481106102eb576102ea610c4b565b5b9060005260206000200154600061030c600284610a0190919063ffffffff16565b8154811061031d5761031c610c4b565b5b9060005260206000200154105b156103f757600080610346600284610a0190919063ffffffff16565b8154811061035757610356610c4b565b5b906000526020600020015490506000828154811061037857610377610c4b565b5b90600052602060002001546000610399600285610a0190919063ffffffff16565b815481106103aa576103a9610c4b565b5b906000526020600020018190555080600083815481106103cd576103cc610c4b565b5b90600052602060002001819055506103ef600283610a0190919063ffffffff16565b9150506102cc565b5050565b60008060008054905011610444576040517f08c379a000000000000000000000000000000000000000000000000000000000815260040161043b90610c2b565b60405180910390fd5b60008060008154811061045a57610459610c4b565b5b906000526020600020015490506000610482600160008054905061083590919063ffffffff16565b8154811061049357610492610c4b565b5b9060005260206000200154600080815481106104b2576104b1610c4b565b5b906000526020600020018190555060008054806104d2576104d1610c7a565b5b6001900381819060005260206000200160009055905560006104f38161084b565b7fff7128ed8a6f04c0a34797b4aa8322b3db6b8039d7df8c22103d2adec7a178b0826040516105229190610ad3565b60405180910390a1819250505090565b6060600080548060200260200160405190810160405280929190818152602001828054801561058057602002820191906000526020600020905b81548152602001906001019080831161056c575b5050505050905090565b6000818154811061059a57600080fd5b906000526020600020016000915090505481565b6000806105ca600160008054905061083590919063ffffffff16565b90506000806105e3600284610a0190919063ffffffff16565b815481106105f4576105f3610c4b565b5b9060005260206000200154905060006106168384610a0190919063ffffffff16565b9050600061062d8485610a0190919063ffffffff16565b90505b6000805490508110156106a157610665836000838154811061065557610654610c4b565b5b9060005260206000200154610a17565b92506000818154811061067b5761067a610c4b565b5b90600052602060002001548303610690578091505b8061069a90610cd8565b9050610630565b5081935050505090565b600080600080549050116106f4576040517f08c379a00000000000000000000000000000000000000000000000000000000081526004016106eb90610c2b565b60405180910390fd5b600061070f600160008054905061083590919063ffffffff16565b9050600080610728600284610a0190919063ffffffff16565b8154811061073957610738610c4b565b5b90600052602060002001549050600061075b8384610a0190919063ffffffff16565b905060006107728485610a0190919063ffffffff16565b90505b6000805490508110156107e6576107aa836000838154811061079a57610799610c4b565b5b9060005260206000200154610a17565b9250600081815481106107c0576107bf610c4b565b5b906000526020600020015483036107d5578091505b806107df90610cd8565b9050610775565b5060008290506107f58261018b565b7e0696b88c8e3714befc6cf161d7e306010a886d98c856d18b53050adcc89599816040516108239190610ad3565b60405180910390a18094505050505090565b600081836108439190610d20565b905092915050565b5b610865600160008054905061083590919063ffffffff16565b610879600283610a3090919063ffffffff16565b10156109fe5760006108a8600161089a600285610a3090919063ffffffff16565b610a4690919063ffffffff16565b905060008082815481106108bf576108be610c4b565b5b906000526020600020015490506000806108e3600185610a4690919063ffffffff16565b815481106108f4576108f3610c4b565b5b90600052602060002001549050808210156109205761091d600184610a4690919063ffffffff16565b92505b6000838154811061093457610933610c4b565b5b90600052602060002001546000858154811061095357610952610c4b565b5b9060005260206000200154111561096c575050506109fe565b600080858154811061098157610980610c4b565b5b90600052602060002001549050600084815481106109a2576109a1610c4b565b5b9060005260206000200154600086815481106109c1576109c0610c4b565b5b906000526020600020018190555080600085815481106109e4576109e3610c4b565b5b90600052602060002001819055508394505050505061084c565b50565b60008183610a0f9190610d83565b905092915050565b6000818310610a265781610a28565b825b905092915050565b60008183610a3e9190610db4565b905092915050565b60008183610a549190610df6565b905092915050565b600080fd5b6000819050919050565b610a7481610a61565b8114610a7f57600080fd5b50565b600081359050610a9181610a6b565b92915050565b600060208284031215610aad57610aac610a5c565b5b6000610abb84828501610a82565b91505092915050565b610acd81610a61565b82525050565b6000602082019050610ae86000830184610ac4565b92915050565b600081519050919050565b600082825260208201905092915050565b6000819050602082019050919050565b610b2381610a61565b82525050565b6000610b358383610b1a565b60208301905092915050565b6000602082019050919050565b6000610b5982610aee565b610b638185610af9565b9350610b6e83610b0a565b8060005b83811015610b9f578151610b868882610b29565b9750610b9183610b41565b925050600181019050610b72565b5085935050505092915050565b60006020820190508181036000830152610bc68184610b4e565b905092915050565b600082825260208201905092915050565b7f4f72646572626f6f6b206973206e6f7420696e697469616c697a656400000000600082015250565b6000610c15601c83610bce565b9150610c2082610bdf565b602082019050919050565b60006020820190508181036000830152610c4481610c08565b9050919050565b7f4e487b7100000000000000000000000000000000000000000000000000000000600052603260045260246000fd5b7f4e487b7100000000000000000000000000000000000000000000000000000000600052603160045260246000fd5b7f4e487b7100000000000000000000000000000000000000000000000000000000600052601160045260246000fd5b6000610ce382610a61565b91507fffffffffffffffffffffffffffffffffffffffffffffffffffffffffffffffff8203610d1557610d14610ca9565b5b600182019050919050565b6000610d2b82610a61565b9150610d3683610a61565b9250828203905081811115610d4e57610d4d610ca9565b5b92915050565b7f4e487b7100000000000000000000000000000000000000000000000000000000600052601260045260246000fd5b6000610d8e82610a61565b9150610d9983610a61565b925082610da957610da8610d54565b5b828204905092915050565b6000610dbf82610a61565b9150610dca83610a61565b9250828202610dd881610a61565b91508282048414831517610def57610dee610ca9565b5b5092915050565b6000610e0182610a61565b9150610e0c83610a61565b9250828201905080821115610e2457610e23610ca9565b5b9291505056fea2646970667358221220a49b9df5d9ad7beec23dde8a0e1cde53e05d84dd2b92abc05ba52927d355b1cd64736f6c63430008120033",
  "linkReferences": {},
  "deployedLinkReferences": {}
}